{
  "_format": "hh-sol-artifact-1",
  "contractName": "MyEpicNFT",
  "sourceName": "contracts/MyEpicNFT.sol",
  "abi": [
    {
      "inputs": [],
      "stateMutability": "nonpayable",
      "type": "constructor"
    },
    {
      "anonymous": false,
      "inputs": [
        {
          "indexed": true,
          "internalType": "address",
          "name": "owner",
          "type": "address"
        },
        {
          "indexed": true,
          "internalType": "address",
          "name": "approved",
          "type": "address"
        },
        {
          "indexed": true,
          "internalType": "uint256",
          "name": "tokenId",
          "type": "uint256"
        }
      ],
      "name": "Approval",
      "type": "event"
    },
    {
      "anonymous": false,
      "inputs": [
        {
          "indexed": true,
          "internalType": "address",
          "name": "owner",
          "type": "address"
        },
        {
          "indexed": true,
          "internalType": "address",
          "name": "operator",
          "type": "address"
        },
        {
          "indexed": false,
          "internalType": "bool",
          "name": "approved",
          "type": "bool"
        }
      ],
      "name": "ApprovalForAll",
      "type": "event"
    },
    {
      "anonymous": false,
      "inputs": [
        {
          "indexed": false,
          "internalType": "address",
          "name": "sender",
          "type": "address"
        },
        {
          "indexed": false,
          "internalType": "uint256",
          "name": "tokenId",
          "type": "uint256"
        }
      ],
      "name": "NewEpicNFTMinted",
      "type": "event"
    },
    {
      "anonymous": false,
      "inputs": [
        {
          "indexed": true,
          "internalType": "address",
          "name": "from",
          "type": "address"
        },
        {
          "indexed": true,
          "internalType": "address",
          "name": "to",
          "type": "address"
        },
        {
          "indexed": true,
          "internalType": "uint256",
          "name": "tokenId",
          "type": "uint256"
        }
      ],
      "name": "Transfer",
      "type": "event"
    },
    {
      "inputs": [],
      "name": "MAX_NFT_COUNT",
      "outputs": [
        {
          "internalType": "uint256",
          "name": "",
          "type": "uint256"
        }
      ],
      "stateMutability": "view",
      "type": "function"
    },
    {
      "inputs": [
        {
          "internalType": "address",
          "name": "to",
          "type": "address"
        },
        {
          "internalType": "uint256",
          "name": "tokenId",
          "type": "uint256"
        }
      ],
      "name": "approve",
      "outputs": [],
      "stateMutability": "nonpayable",
      "type": "function"
    },
    {
      "inputs": [
        {
          "internalType": "address",
          "name": "owner",
          "type": "address"
        }
      ],
      "name": "balanceOf",
      "outputs": [
        {
          "internalType": "uint256",
          "name": "",
          "type": "uint256"
        }
      ],
      "stateMutability": "view",
      "type": "function"
    },
    {
      "inputs": [
        {
          "internalType": "uint256",
          "name": "tokenId",
          "type": "uint256"
        }
      ],
      "name": "getApproved",
      "outputs": [
        {
          "internalType": "address",
          "name": "",
          "type": "address"
        }
      ],
      "stateMutability": "view",
      "type": "function"
    },
    {
      "inputs": [],
      "name": "getTotalNFTsMintedSoFar",
      "outputs": [
        {
          "internalType": "uint256",
          "name": "totalNFTsMintedSoFar",
          "type": "uint256"
        }
      ],
      "stateMutability": "view",
      "type": "function"
    },
    {
      "inputs": [
        {
          "internalType": "address",
          "name": "owner",
          "type": "address"
        },
        {
          "internalType": "address",
          "name": "operator",
          "type": "address"
        }
      ],
      "name": "isApprovedForAll",
      "outputs": [
        {
          "internalType": "bool",
          "name": "",
          "type": "bool"
        }
      ],
      "stateMutability": "view",
      "type": "function"
    },
    {
      "inputs": [],
      "name": "makeAnEpicNFT",
      "outputs": [],
      "stateMutability": "nonpayable",
      "type": "function"
    },
    {
      "inputs": [],
      "name": "name",
      "outputs": [
        {
          "internalType": "string",
          "name": "",
          "type": "string"
        }
      ],
      "stateMutability": "view",
      "type": "function"
    },
    {
      "inputs": [
        {
          "internalType": "uint256",
          "name": "tokenId",
          "type": "uint256"
        }
      ],
      "name": "ownerOf",
      "outputs": [
        {
          "internalType": "address",
          "name": "",
          "type": "address"
        }
      ],
      "stateMutability": "view",
      "type": "function"
    },
    {
      "inputs": [
        {
          "internalType": "uint256",
          "name": "tokenId",
          "type": "uint256"
        }
      ],
      "name": "pickRandomFirstWord",
      "outputs": [
        {
          "internalType": "string",
          "name": "",
          "type": "string"
        }
      ],
      "stateMutability": "view",
      "type": "function"
    },
    {
      "inputs": [
        {
          "internalType": "uint256",
          "name": "tokenId",
          "type": "uint256"
        }
      ],
      "name": "pickRandomSecondWord",
      "outputs": [
        {
          "internalType": "string",
          "name": "",
          "type": "string"
        }
      ],
      "stateMutability": "view",
      "type": "function"
    },
    {
      "inputs": [
        {
          "internalType": "uint256",
          "name": "tokenId",
          "type": "uint256"
        }
      ],
      "name": "pickRandomThirdWord",
      "outputs": [
        {
          "internalType": "string",
          "name": "",
          "type": "string"
        }
      ],
      "stateMutability": "view",
      "type": "function"
    },
    {
      "inputs": [
        {
          "internalType": "address",
          "name": "from",
          "type": "address"
        },
        {
          "internalType": "address",
          "name": "to",
          "type": "address"
        },
        {
          "internalType": "uint256",
          "name": "tokenId",
          "type": "uint256"
        }
      ],
      "name": "safeTransferFrom",
      "outputs": [],
      "stateMutability": "nonpayable",
      "type": "function"
    },
    {
      "inputs": [
        {
          "internalType": "address",
          "name": "from",
          "type": "address"
        },
        {
          "internalType": "address",
          "name": "to",
          "type": "address"
        },
        {
          "internalType": "uint256",
          "name": "tokenId",
          "type": "uint256"
        },
        {
          "internalType": "bytes",
          "name": "_data",
          "type": "bytes"
        }
      ],
      "name": "safeTransferFrom",
      "outputs": [],
      "stateMutability": "nonpayable",
      "type": "function"
    },
    {
      "inputs": [
        {
          "internalType": "address",
          "name": "operator",
          "type": "address"
        },
        {
          "internalType": "bool",
          "name": "approved",
          "type": "bool"
        }
      ],
      "name": "setApprovalForAll",
      "outputs": [],
      "stateMutability": "nonpayable",
      "type": "function"
    },
    {
      "inputs": [
        {
          "internalType": "bytes4",
          "name": "interfaceId",
          "type": "bytes4"
        }
      ],
      "name": "supportsInterface",
      "outputs": [
        {
          "internalType": "bool",
          "name": "",
          "type": "bool"
        }
      ],
      "stateMutability": "view",
      "type": "function"
    },
    {
      "inputs": [],
      "name": "symbol",
      "outputs": [
        {
          "internalType": "string",
          "name": "",
          "type": "string"
        }
      ],
      "stateMutability": "view",
      "type": "function"
    },
    {
      "inputs": [
        {
          "internalType": "uint256",
          "name": "tokenId",
          "type": "uint256"
        }
      ],
      "name": "tokenURI",
      "outputs": [
        {
          "internalType": "string",
          "name": "",
          "type": "string"
        }
      ],
      "stateMutability": "view",
      "type": "function"
    },
    {
      "inputs": [
        {
          "internalType": "address",
          "name": "from",
          "type": "address"
        },
        {
          "internalType": "address",
          "name": "to",
          "type": "address"
        },
        {
          "internalType": "uint256",
          "name": "tokenId",
          "type": "uint256"
        }
      ],
      "name": "transferFrom",
      "outputs": [],
      "stateMutability": "nonpayable",
      "type": "function"
    }
  ],
  "bytecode": "0x6080604052600060085560405180610160016040528061012f81526020016200459e61012f9139600990805190602001906200003d92919062000683565b506040518060c001604052806040518060400160405280600681526020017f4d6967687479000000000000000000000000000000000000000000000000000081525081526020016040518060400160405280600881526020017f476c6f72696f757300000000000000000000000000000000000000000000000081525081526020016040518060400160405280600681526020017f537570657262000000000000000000000000000000000000000000000000000081525081526020016040518060400160405280600781526020017f416e6369656e740000000000000000000000000000000000000000000000000081525081526020016040518060400160405280600881526020017f5472616e7175696c00000000000000000000000000000000000000000000000081525081526020016040518060400160405280600881526020017f50726563696f7573000000000000000000000000000000000000000000000000815250815250600a906006620001bb92919062000714565b506040518060c001604052806040518060400160405280600a81526020017f5472656d656e646f75730000000000000000000000000000000000000000000081525081526020016040518060400160405280600881526020017f436861726d696e6700000000000000000000000000000000000000000000000081525081526020016040518060400160405280600781526020017f536572696f75730000000000000000000000000000000000000000000000000081525081526020016040518060400160405280600a81526020017f436f75726167656f75730000000000000000000000000000000000000000000081525081526020016040518060400160405280600781526020017f5072656d69756d0000000000000000000000000000000000000000000000000081525081526020016040518060400160405280600681526020017f436c6f7564790000000000000000000000000000000000000000000000000000815250815250600b9060066200033992919062000714565b506040518060c001604052806040518060400160405280600681526020017f477261636965000000000000000000000000000000000000000000000000000081525081526020016040518060400160405280600881526020017f4a756c69616e6e6500000000000000000000000000000000000000000000000081525081526020016040518060400160405280600781526020017f4272656e746f6e0000000000000000000000000000000000000000000000000081525081526020016040518060400160405280600781526020017f546162697468610000000000000000000000000000000000000000000000000081525081526020016040518060400160405280600681526020017f53616e647261000000000000000000000000000000000000000000000000000081525081526020016040518060400160405280600681526020017f4d616e75656c0000000000000000000000000000000000000000000000000000815250815250600c906006620004b792919062000714565b50348015620004c557600080fd5b506040518060400160405280600981526020017f5371756172654e465400000000000000000000000000000000000000000000008152506040518060400160405280600681526020017f535155415245000000000000000000000000000000000000000000000000000081525081600090805190602001906200054a92919062000683565b5080600190805190602001906200056392919062000683565b505050620005b16040518060400160405280601e81526020017f54686973206973206d79204e465420636f6e74726163742e20576f6168210000815250620005b760201b620011ab1760201c565b62000935565b6200065781604051602401620005ce919062000849565b6040516020818303038152906040527f41304fac000000000000000000000000000000000000000000000000000000007bffffffffffffffffffffffffffffffffffffffffffffffffffffffff19166020820180517bffffffffffffffffffffffffffffffffffffffffffffffffffffffff83818316178352505050506200065a60201b60201c565b50565b60008151905060006a636f6e736f6c652e6c6f679050602083016000808483855afa5050505050565b8280546200069190620008bf565b90600052602060002090601f016020900481019282620006b5576000855562000701565b82601f10620006d057805160ff191683800117855562000701565b8280016001018555821562000701579182015b8281111562000700578251825591602001919060010190620006e3565b5b5090506200071091906200077b565b5090565b82805482825590600052602060002090810192821562000768579160200282015b82811115620007675782518290805190602001906200075692919062000683565b509160200191906001019062000735565b5b5090506200077791906200079a565b5090565b5b80821115620007965760008160009055506001016200077c565b5090565b5b80821115620007be5760008181620007b49190620007c2565b506001016200079b565b5090565b508054620007d090620008bf565b6000825580601f10620007e4575062000805565b601f0160209004906000526020600020908101906200080491906200077b565b5b50565b600062000815826200086d565b62000821818562000878565b93506200083381856020860162000889565b6200083e8162000924565b840191505092915050565b6000602082019050818103600083015262000865818462000808565b905092915050565b600081519050919050565b600082825260208201905092915050565b60005b83811015620008a95780820151818401526020810190506200088c565b83811115620008b9576000848401525b50505050565b60006002820490506001821680620008d857607f821691505b60208210811415620008ef57620008ee620008f5565b5b50919050565b7f4e487b7100000000000000000000000000000000000000000000000000000000600052602260045260246000fd5b6000601f19601f8301169050919050565b613c5980620009456000396000f3fe608060405234801561001057600080fd5b50600436106101215760003560e01c80636e1a1e81116100ad578063b88d4fde11610071578063b88d4fde1461032e578063c575757a1461034a578063c87b56dd1461037a578063de9d132f146103aa578063e985e9c5146103b457610121565b80636e1a1e811461027657806370a082311461029457806395d89b41146102c4578063a22cb465146102e2578063b187301f146102fe57610121565b8063095ea7b3116100f4578063095ea7b3146101c257806323b872dd146101de5780632de38d68146101fa57806342842e0e1461022a5780636352211e1461024657610121565b806301ffc9a714610126578063060475901461015657806306fdde0314610174578063081812fc14610192575b600080fd5b610140600480360381019061013b9190612667565b6103e4565b60405161014d9190612dd9565b60405180910390f35b61015e6104c6565b60405161016b9190613074565b60405180910390f35b61017c6104d0565b6040516101899190612df4565b60405180910390f35b6101ac60048036038101906101a791906126b9565b610562565b6040516101b99190612d49565b60405180910390f35b6101dc60048036038101906101d7919061262b565b6105e7565b005b6101f860048036038101906101f39190612525565b6106ff565b005b610214600480360381019061020f91906126b9565b61075f565b6040516102219190612df4565b60405180910390f35b610244600480360381019061023f9190612525565b61087d565b005b610260600480360381019061025b91906126b9565b61089d565b60405161026d9190612d49565b60405180910390f35b61027e61094f565b60405161028b9190613074565b60405180910390f35b6102ae60048036038101906102a991906124c0565b610954565b6040516102bb9190613074565b60405180910390f35b6102cc610a0c565b6040516102d99190612df4565b60405180910390f35b6102fc60048036038101906102f791906125ef565b610a9e565b005b610318600480360381019061031391906126b9565b610ab4565b6040516103259190612df4565b60405180910390f35b61034860048036038101906103439190612574565b610bd2565b005b610364600480360381019061035f91906126b9565b610c34565b6040516103719190612df4565b60405180910390f35b610394600480360381019061038f91906126b9565b610d52565b6040516103a19190612df4565b60405180910390f35b6103b2610ea4565b005b6103ce60048036038101906103c991906124e9565b611117565b6040516103db9190612dd9565b60405180910390f35b60007f80ac58cd000000000000000000000000000000000000000000000000000000007bffffffffffffffffffffffffffffffffffffffffffffffffffffffff1916827bffffffffffffffffffffffffffffffffffffffffffffffffffffffff191614806104af57507f5b5e139f000000000000000000000000000000000000000000000000000000007bffffffffffffffffffffffffffffffffffffffffffffffffffffffff1916827bffffffffffffffffffffffffffffffffffffffffffffffffffffffff1916145b806104bf57506104be82611244565b5b9050919050565b6000600854905090565b6060600080546104df90613308565b80601f016020809104026020016040519081016040528092919081815260200182805461050b90613308565b80156105585780601f1061052d57610100808354040283529160200191610558565b820191906000526020600020905b81548152906001019060200180831161053b57829003601f168201915b5050505050905090565b600061056d826112ae565b6105ac576040517f08c379a00000000000000000000000000000000000000000000000000000000081526004016105a390612fd4565b60405180910390fd5b6004600083815260200190815260200160002060009054906101000a900473ffffffffffffffffffffffffffffffffffffffff169050919050565b60006105f28261089d565b90508073ffffffffffffffffffffffffffffffffffffffff168373ffffffffffffffffffffffffffffffffffffffff161415610663576040517f08c379a000000000000000000000000000000000000000000000000000000000815260040161065a90613014565b60405180910390fd5b8073ffffffffffffffffffffffffffffffffffffffff1661068261131a565b73ffffffffffffffffffffffffffffffffffffffff1614806106b157506106b0816106ab61131a565b611117565b5b6106f0576040517f08c379a00000000000000000000000000000000000000000000000000000000081526004016106e790612f14565b60405180910390fd5b6106fa8383611322565b505050565b61071061070a61131a565b826113db565b61074f576040517f08c379a000000000000000000000000000000000000000000000000000000000815260040161074690613034565b60405180910390fd5b61075a8383836114b9565b505050565b6060600061079361076f84611720565b60405160200161077f9190612d05565b6040516020818303038152906040526118cd565b9050600a80549050816107a691906133b4565b9050600a81815481106107e2577f4e487b7100000000000000000000000000000000000000000000000000000000600052603260045260246000fd5b9060005260206000200180546107f790613308565b80601f016020809104026020016040519081016040528092919081815260200182805461082390613308565b80156108705780601f1061084557610100808354040283529160200191610870565b820191906000526020600020905b81548152906001019060200180831161085357829003601f168201915b5050505050915050919050565b61089883838360405180602001604052806000815250610bd2565b505050565b6000806002600084815260200190815260200160002060009054906101000a900473ffffffffffffffffffffffffffffffffffffffff169050600073ffffffffffffffffffffffffffffffffffffffff168173ffffffffffffffffffffffffffffffffffffffff161415610946576040517f08c379a000000000000000000000000000000000000000000000000000000000815260040161093d90612f54565b60405180910390fd5b80915050919050565b603281565b60008073ffffffffffffffffffffffffffffffffffffffff168273ffffffffffffffffffffffffffffffffffffffff1614156109c5576040517f08c379a00000000000000000000000000000000000000000000000000000000081526004016109bc90612f34565b60405180910390fd5b600360008373ffffffffffffffffffffffffffffffffffffffff1673ffffffffffffffffffffffffffffffffffffffff168152602001908152602001600020549050919050565b606060018054610a1b90613308565b80601f0160208091040260200160405190810160405280929190818152602001828054610a4790613308565b8015610a945780601f10610a6957610100808354040283529160200191610a94565b820191906000526020600020905b815481529060010190602001808311610a7757829003601f168201915b5050505050905090565b610ab0610aa961131a565b8383611900565b5050565b60606000610ae8610ac484611720565b604051602001610ad49190612c9e565b6040516020818303038152906040526118cd565b9050600b8054905081610afb91906133b4565b9050600b8181548110610b37577f4e487b7100000000000000000000000000000000000000000000000000000000600052603260045260246000fd5b906000526020600020018054610b4c90613308565b80601f0160208091040260200160405190810160405280929190818152602001828054610b7890613308565b8015610bc55780601f10610b9a57610100808354040283529160200191610bc5565b820191906000526020600020905b815481529060010190602001808311610ba857829003601f168201915b5050505050915050919050565b610be3610bdd61131a565b836113db565b610c22576040517f08c379a0000000000000000000000000000000000000000000000000000000008152600401610c1990613034565b60405180910390fd5b610c2e84848484611a6d565b50505050565b60606000610c68610c4484611720565b604051602001610c549190612c7c565b6040516020818303038152906040526118cd565b9050600c8054905081610c7b91906133b4565b9050600c8181548110610cb7577f4e487b7100000000000000000000000000000000000000000000000000000000600052603260045260246000fd5b906000526020600020018054610ccc90613308565b80601f0160208091040260200160405190810160405280929190818152602001828054610cf890613308565b8015610d455780601f10610d1a57610100808354040283529160200191610d45565b820191906000526020600020905b815481529060010190602001808311610d2857829003601f168201915b5050505050915050919050565b6060610d5d826112ae565b610d9c576040517f08c379a0000000000000000000000000000000000000000000000000000000008152600401610d9390612fb4565b60405180910390fd5b6000600660008481526020019081526020016000208054610dbc90613308565b80601f0160208091040260200160405190810160405280929190818152602001828054610de890613308565b8015610e355780601f10610e0a57610100808354040283529160200191610e35565b820191906000526020600020905b815481529060010190602001808311610e1857829003601f168201915b505050505090506000610e46611ac9565b9050600081511415610e5c578192505050610e9f565b600082511115610e91578082604051602001610e79929190612bd6565b60405160208183030381529060405292505050610e9f565b610e9a84611ae0565b925050505b919050565b60326008541115610eea576040517f08c379a0000000000000000000000000000000000000000000000000000000008152600401610ee190613054565b60405180910390fd5b6000610ef66007611b87565b90506000610f038261075f565b90506000610f1083610ab4565b90506000610f1d84610c34565b90506000838383604051602001610f3693929190612bfa565b60405160208183030381529060405290506000600982604051602001610f5d929190612c2b565b60405160208183030381529060405290506000610fa283610f7d84611b95565b604051602001610f8e929190612cc0565b604051602081830303815290604052611b95565b9050600081604051602001610fb79190612d27565b60405160208183030381529060405290506110066040518060400160405280601581526020017f0a2d2d2d2d2d2d2d2d2d2d2d2d2d2d2d2d2d2d2d2d00000000000000000000008152506111ab565b61102e8160405160200161101a9190612c5a565b6040516020818303038152906040526111ab565b61106c6040518060400160405280601581526020017f2d2d2d2d2d2d2d2d2d2d2d2d2d2d2d2d2d2d2d2d0a00000000000000000000008152506111ab565b6110763389611d34565b6110808882611d52565b61108a6007611dc6565b6110a06001600854611ddc90919063ffffffff16565b6008819055506110b1600854611df2565b6110d4604051806060016040528060258152602001613bbf602591398933611e8b565b7febb98688741ffa4c7589bf325de30cf7becb63de567842e1ccdb6cb949fdc82c3389604051611105929190612db0565b60405180910390a15050505050505050565b6000600560008473ffffffffffffffffffffffffffffffffffffffff1673ffffffffffffffffffffffffffffffffffffffff16815260200190815260200160002060008373ffffffffffffffffffffffffffffffffffffffff1673ffffffffffffffffffffffffffffffffffffffff16815260200190815260200160002060009054906101000a900460ff16905092915050565b611241816040516024016111bf9190612df4565b6040516020818303038152906040527f41304fac000000000000000000000000000000000000000000000000000000007bffffffffffffffffffffffffffffffffffffffffffffffffffffffff19166020820180517bffffffffffffffffffffffffffffffffffffffffffffffffffffffff8381831617835250505050611f2a565b50565b60007f01ffc9a7000000000000000000000000000000000000000000000000000000007bffffffffffffffffffffffffffffffffffffffffffffffffffffffff1916827bffffffffffffffffffffffffffffffffffffffffffffffffffffffff1916149050919050565b60008073ffffffffffffffffffffffffffffffffffffffff166002600084815260200190815260200160002060009054906101000a900473ffffffffffffffffffffffffffffffffffffffff1673ffffffffffffffffffffffffffffffffffffffff1614159050919050565b600033905090565b816004600083815260200190815260200160002060006101000a81548173ffffffffffffffffffffffffffffffffffffffff021916908373ffffffffffffffffffffffffffffffffffffffff160217905550808273ffffffffffffffffffffffffffffffffffffffff166113958361089d565b73ffffffffffffffffffffffffffffffffffffffff167f8c5be1e5ebec7d5bd14f71427d1e84f3dd0314c0f7b2291e5b200ac8c7c3b92560405160405180910390a45050565b60006113e6826112ae565b611425576040517f08c379a000000000000000000000000000000000000000000000000000000000815260040161141c90612ef4565b60405180910390fd5b60006114308361089d565b90508073ffffffffffffffffffffffffffffffffffffffff168473ffffffffffffffffffffffffffffffffffffffff16148061149f57508373ffffffffffffffffffffffffffffffffffffffff1661148784610562565b73ffffffffffffffffffffffffffffffffffffffff16145b806114b057506114af8185611117565b5b91505092915050565b8273ffffffffffffffffffffffffffffffffffffffff166114d98261089d565b73ffffffffffffffffffffffffffffffffffffffff161461152f576040517f08c379a000000000000000000000000000000000000000000000000000000000815260040161152690612e74565b60405180910390fd5b600073ffffffffffffffffffffffffffffffffffffffff168273ffffffffffffffffffffffffffffffffffffffff16141561159f576040517f08c379a000000000000000000000000000000000000000000000000000000000815260040161159690612eb4565b60405180910390fd5b6115aa838383611f53565b6115b5600082611322565b6001600360008573ffffffffffffffffffffffffffffffffffffffff1673ffffffffffffffffffffffffffffffffffffffff1681526020019081526020016000206000828254611605919061321e565b925050819055506001600360008473ffffffffffffffffffffffffffffffffffffffff1673ffffffffffffffffffffffffffffffffffffffff168152602001908152602001600020600082825461165c919061313d565b92505081905550816002600083815260200190815260200160002060006101000a81548173ffffffffffffffffffffffffffffffffffffffff021916908373ffffffffffffffffffffffffffffffffffffffff160217905550808273ffffffffffffffffffffffffffffffffffffffff168473ffffffffffffffffffffffffffffffffffffffff167fddf252ad1be2c89b69c2b068fc378daa952ba7f163c4a11628f55a4df523b3ef60405160405180910390a461171b838383611f58565b505050565b60606000821415611768576040518060400160405280600181526020017f300000000000000000000000000000000000000000000000000000000000000081525090506118c8565b600082905060005b6000821461179a5780806117839061336b565b915050600a826117939190613193565b9150611770565b60008167ffffffffffffffff8111156117dc577f4e487b7100000000000000000000000000000000000000000000000000000000600052604160045260246000fd5b6040519080825280601f01601f19166020018201604052801561180e5781602001600182028036833780820191505090505b5090505b600085146118c157600182611827919061321e565b9150600a8561183691906133b4565b6030611842919061313d565b60f81b81838151811061187e577f4e487b7100000000000000000000000000000000000000000000000000000000600052603260045260246000fd5b60200101907effffffffffffffffffffffffffffffffffffffffffffffffffffffffffffff1916908160001a905350600a856118ba9190613193565b9450611812565b8093505050505b919050565b6000816040516020016118e09190612bbf565b6040516020818303038152906040528051906020012060001c9050919050565b8173ffffffffffffffffffffffffffffffffffffffff168373ffffffffffffffffffffffffffffffffffffffff16141561196f576040517f08c379a000000000000000000000000000000000000000000000000000000000815260040161196690612ed4565b60405180910390fd5b80600560008573ffffffffffffffffffffffffffffffffffffffff1673ffffffffffffffffffffffffffffffffffffffff16815260200190815260200160002060008473ffffffffffffffffffffffffffffffffffffffff1673ffffffffffffffffffffffffffffffffffffffff16815260200190815260200160002060006101000a81548160ff0219169083151502179055508173ffffffffffffffffffffffffffffffffffffffff168373ffffffffffffffffffffffffffffffffffffffff167f17307eab39ab6107e8899845ad3d59bd9653f200f220920489ca2b5937696c3183604051611a609190612dd9565b60405180910390a3505050565b611a788484846114b9565b611a8484848484611f5d565b611ac3576040517f08c379a0000000000000000000000000000000000000000000000000000000008152600401611aba90612e54565b60405180910390fd5b50505050565b606060405180602001604052806000815250905090565b6060611aeb826112ae565b611b2a576040517f08c379a0000000000000000000000000000000000000000000000000000000008152600401611b2190612ff4565b60405180910390fd5b6000611b34611ac9565b90506000815111611b545760405180602001604052806000815250611b7f565b80611b5e84611720565b604051602001611b6f929190612bd6565b6040516020818303038152906040525b915050919050565b600081600001549050919050565b6060600082511415611bb857604051806020016040528060008152509050611d2f565b6000604051806060016040528060408152602001613be46040913990506000600360028551611be7919061313d565b611bf19190613193565b6004611bfd91906131c4565b90506000602082611c0e919061313d565b67ffffffffffffffff811115611c4d577f4e487b7100000000000000000000000000000000000000000000000000000000600052604160045260246000fd5b6040519080825280601f01601f191660200182016040528015611c7f5781602001600182028036833780820191505090505b509050818152600183018586518101602084015b81831015611cee576003830192508251603f8160121c168501518253600182019150603f81600c1c168501518253600182019150603f8160061c168501518253600182019150603f8116850151825360018201915050611c93565b600389510660018114611d085760028114611d1857611d23565b613d3d60f01b6002830352611d23565b603d60f81b60018303525b50505050508093505050505b919050565b611d4e8282604051806020016040528060008152506120f4565b5050565b611d5b826112ae565b611d9a576040517f08c379a0000000000000000000000000000000000000000000000000000000008152600401611d9190612f74565b60405180910390fd5b80600660008481526020019081526020016000209080519060200190611dc192919061234c565b505050565b6001816000016000828254019250508190555050565b60008183611dea919061313d565b905092915050565b611e8881604051602401611e069190613074565b6040516020818303038152906040527ff5b1bba9000000000000000000000000000000000000000000000000000000007bffffffffffffffffffffffffffffffffffffffffffffffffffffffff19166020820180517bffffffffffffffffffffffffffffffffffffffffffffffffffffffff8381831617835250505050611f2a565b50565b611f25838383604051602401611ea393929190612e16565b6040516020818303038152906040527fe3849f79000000000000000000000000000000000000000000000000000000007bffffffffffffffffffffffffffffffffffffffffffffffffffffffff19166020820180517bffffffffffffffffffffffffffffffffffffffffffffffffffffffff8381831617835250505050611f2a565b505050565b60008151905060006a636f6e736f6c652e6c6f679050602083016000808483855afa5050505050565b505050565b505050565b6000611f7e8473ffffffffffffffffffffffffffffffffffffffff1661214f565b156120e7578373ffffffffffffffffffffffffffffffffffffffff1663150b7a02611fa761131a565b8786866040518563ffffffff1660e01b8152600401611fc99493929190612d64565b602060405180830381600087803b158015611fe357600080fd5b505af192505050801561201457506040513d601f19601f820116820180604052508101906120119190612690565b60015b612097573d8060008114612044576040519150601f19603f3d011682016040523d82523d6000602084013e612049565b606091505b5060008151141561208f576040517f08c379a000000000000000000000000000000000000000000000000000000000815260040161208690612e54565b60405180910390fd5b805181602001fd5b63150b7a0260e01b7bffffffffffffffffffffffffffffffffffffffffffffffffffffffff1916817bffffffffffffffffffffffffffffffffffffffffffffffffffffffff1916149150506120ec565b600190505b949350505050565b6120fe8383612172565b61210b6000848484611f5d565b61214a576040517f08c379a000000000000000000000000000000000000000000000000000000000815260040161214190612e54565b60405180910390fd5b505050565b6000808273ffffffffffffffffffffffffffffffffffffffff163b119050919050565b600073ffffffffffffffffffffffffffffffffffffffff168273ffffffffffffffffffffffffffffffffffffffff1614156121e2576040517f08c379a00000000000000000000000000000000000000000000000000000000081526004016121d990612f94565b60405180910390fd5b6121eb816112ae565b1561222b576040517f08c379a000000000000000000000000000000000000000000000000000000000815260040161222290612e94565b60405180910390fd5b61223760008383611f53565b6001600360008473ffffffffffffffffffffffffffffffffffffffff1673ffffffffffffffffffffffffffffffffffffffff1681526020019081526020016000206000828254612287919061313d565b92505081905550816002600083815260200190815260200160002060006101000a81548173ffffffffffffffffffffffffffffffffffffffff021916908373ffffffffffffffffffffffffffffffffffffffff160217905550808273ffffffffffffffffffffffffffffffffffffffff16600073ffffffffffffffffffffffffffffffffffffffff167fddf252ad1be2c89b69c2b068fc378daa952ba7f163c4a11628f55a4df523b3ef60405160405180910390a461234860008383611f58565b5050565b82805461235890613308565b90600052602060002090601f01602090048101928261237a57600085556123c1565b82601f1061239357805160ff19168380011785556123c1565b828001600101855582156123c1579182015b828111156123c05782518255916020019190600101906123a5565b5b5090506123ce91906123d2565b5090565b5b808211156123eb5760008160009055506001016123d3565b5090565b60006124026123fd846130b4565b61308f565b90508281526020810184848401111561241a57600080fd5b6124258482856132c6565b509392505050565b60008135905061243c81613b62565b92915050565b60008135905061245181613b79565b92915050565b60008135905061246681613b90565b92915050565b60008151905061247b81613b90565b92915050565b600082601f83011261249257600080fd5b81356124a28482602086016123ef565b91505092915050565b6000813590506124ba81613ba7565b92915050565b6000602082840312156124d257600080fd5b60006124e08482850161242d565b91505092915050565b600080604083850312156124fc57600080fd5b600061250a8582860161242d565b925050602061251b8582860161242d565b9150509250929050565b60008060006060848603121561253a57600080fd5b60006125488682870161242d565b93505060206125598682870161242d565b925050604061256a868287016124ab565b9150509250925092565b6000806000806080858703121561258a57600080fd5b60006125988782880161242d565b94505060206125a98782880161242d565b93505060406125ba878288016124ab565b925050606085013567ffffffffffffffff8111156125d757600080fd5b6125e387828801612481565b91505092959194509250565b6000806040838503121561260257600080fd5b60006126108582860161242d565b925050602061262185828601612442565b9150509250929050565b6000806040838503121561263e57600080fd5b600061264c8582860161242d565b925050602061265d858286016124ab565b9150509250929050565b60006020828403121561267957600080fd5b600061268784828501612457565b91505092915050565b6000602082840312156126a257600080fd5b60006126b08482850161246c565b91505092915050565b6000602082840312156126cb57600080fd5b60006126d9848285016124ab565b91505092915050565b6126eb81613252565b82525050565b6126fa81613264565b82525050565b600061270b826130fa565b6127158185613110565b93506127258185602086016132d5565b61272e816134a1565b840191505092915050565b600061274482613105565b61274e8185613121565b935061275e8185602086016132d5565b612767816134a1565b840191505092915050565b600061277d82613105565b6127878185613132565b93506127978185602086016132d5565b80840191505092915050565b600081546127b081613308565b6127ba8186613132565b945060018216600081146127d557600181146127e657612819565b60ff19831686528186019350612819565b6127ef856130e5565b60005b83811015612811578154818901526001820191506020810190506127f2565b838801955050505b50505092915050565b600061282f602583613132565b915061283a826134b2565b602582019050919050565b6000612852603283613121565b915061285d82613501565b604082019050919050565b6000612875602583613121565b915061288082613550565b604082019050919050565b6000612898601c83613121565b91506128a38261359f565b602082019050919050565b60006128bb600a83613132565b91506128c6826135c8565b600a82019050919050565b60006128de602483613121565b91506128e9826135f1565b604082019050919050565b6000612901601983613121565b915061290c82613640565b602082019050919050565b6000612924606383613132565b915061292f82613669565b606382019050919050565b6000612947600b83613132565b915061295282613704565b600b82019050919050565b600061296a602c83613121565b91506129758261372d565b604082019050919050565b600061298d600d83613132565b91506129988261377c565b600d82019050919050565b60006129b0603883613121565b91506129bb826137a5565b604082019050919050565b60006129d3602a83613121565b91506129de826137f4565b604082019050919050565b60006129f6602983613121565b9150612a0182613843565b604082019050919050565b6000612a19602e83613121565b9150612a2482613892565b604082019050919050565b6000612a3c600283613132565b9150612a47826138e1565b600282019050919050565b6000612a5f602083613121565b9150612a6a8261390a565b602082019050919050565b6000612a82603183613121565b9150612a8d82613933565b604082019050919050565b6000612aa5602c83613121565b9150612ab082613982565b604082019050919050565b6000612ac8602f83613121565b9150612ad3826139d1565b604082019050919050565b6000612aeb600a83613132565b9150612af682613a20565b600a82019050919050565b6000612b0e602183613121565b9150612b1982613a49565b604082019050919050565b6000612b31600a83613132565b9150612b3c82613a98565b600a82019050919050565b6000612b54601d83613132565b9150612b5f82613ac1565b601d82019050919050565b6000612b77603183613121565b9150612b8282613aea565b604082019050919050565b6000612b9a601683613121565b9150612ba582613b39565b602082019050919050565b612bb9816132bc565b82525050565b6000612bcb8284612772565b915081905092915050565b6000612be28285612772565b9150612bee8284612772565b91508190509392505050565b6000612c068286612772565b9150612c128285612772565b9150612c1e8284612772565b9150819050949350505050565b6000612c3782856127a3565b9150612c438284612772565b9150612c4e82612980565b91508190509392505050565b6000612c6582612822565b9150612c718284612772565b915081905092915050565b6000612c87826128ae565b9150612c938284612772565b915081905092915050565b6000612ca98261293a565b9150612cb58284612772565b915081905092915050565b6000612ccb82612ade565b9150612cd78285612772565b9150612ce282612917565b9150612cee8284612772565b9150612cf982612a2f565b91508190509392505050565b6000612d1082612b24565b9150612d1c8284612772565b915081905092915050565b6000612d3282612b47565b9150612d3e8284612772565b915081905092915050565b6000602082019050612d5e60008301846126e2565b92915050565b6000608082019050612d7960008301876126e2565b612d8660208301866126e2565b612d936040830185612bb0565b8181036060830152612da58184612700565b905095945050505050565b6000604082019050612dc560008301856126e2565b612dd26020830184612bb0565b9392505050565b6000602082019050612dee60008301846126f1565b92915050565b60006020820190508181036000830152612e0e8184612739565b905092915050565b60006060820190508181036000830152612e308186612739565b9050612e3f6020830185612bb0565b612e4c60408301846126e2565b949350505050565b60006020820190508181036000830152612e6d81612845565b9050919050565b60006020820190508181036000830152612e8d81612868565b9050919050565b60006020820190508181036000830152612ead8161288b565b9050919050565b60006020820190508181036000830152612ecd816128d1565b9050919050565b60006020820190508181036000830152612eed816128f4565b9050919050565b60006020820190508181036000830152612f0d8161295d565b9050919050565b60006020820190508181036000830152612f2d816129a3565b9050919050565b60006020820190508181036000830152612f4d816129c6565b9050919050565b60006020820190508181036000830152612f6d816129e9565b9050919050565b60006020820190508181036000830152612f8d81612a0c565b9050919050565b60006020820190508181036000830152612fad81612a52565b9050919050565b60006020820190508181036000830152612fcd81612a75565b9050919050565b60006020820190508181036000830152612fed81612a98565b9050919050565b6000602082019050818103600083015261300d81612abb565b9050919050565b6000602082019050818103600083015261302d81612b01565b9050919050565b6000602082019050818103600083015261304d81612b6a565b9050919050565b6000602082019050818103600083015261306d81612b8d565b9050919050565b60006020820190506130896000830184612bb0565b92915050565b60006130996130aa565b90506130a5828261333a565b919050565b6000604051905090565b600067ffffffffffffffff8211156130cf576130ce613472565b5b6130d8826134a1565b9050602081019050919050565b60008190508160005260206000209050919050565b600081519050919050565b600081519050919050565b600082825260208201905092915050565b600082825260208201905092915050565b600081905092915050565b6000613148826132bc565b9150613153836132bc565b9250827fffffffffffffffffffffffffffffffffffffffffffffffffffffffffffffffff03821115613188576131876133e5565b5b828201905092915050565b600061319e826132bc565b91506131a9836132bc565b9250826131b9576131b8613414565b5b828204905092915050565b60006131cf826132bc565b91506131da836132bc565b9250817fffffffffffffffffffffffffffffffffffffffffffffffffffffffffffffffff0483118215151615613213576132126133e5565b5b828202905092915050565b6000613229826132bc565b9150613234836132bc565b925082821015613247576132466133e5565b5b828203905092915050565b600061325d8261329c565b9050919050565b60008115159050919050565b60007fffffffff0000000000000000000000000000000000000000000000000000000082169050919050565b600073ffffffffffffffffffffffffffffffffffffffff82169050919050565b6000819050919050565b82818337600083830152505050565b60005b838110156132f35780820151818401526020810190506132d8565b83811115613302576000848401525b50505050565b6000600282049050600182168061332057607f821691505b6020821081141561333457613333613443565b5b50919050565b613343826134a1565b810181811067ffffffffffffffff8211171561336257613361613472565b5b80604052505050565b6000613376826132bc565b91507fffffffffffffffffffffffffffffffffffffffffffffffffffffffffffffffff8214156133a9576133a86133e5565b5b600182019050919050565b60006133bf826132bc565b91506133ca836132bc565b9250826133da576133d9613414565b5b828206905092915050565b7f4e487b7100000000000000000000000000000000000000000000000000000000600052601160045260246000fd5b7f4e487b7100000000000000000000000000000000000000000000000000000000600052601260045260246000fd5b7f4e487b7100000000000000000000000000000000000000000000000000000000600052602260045260246000fd5b7f4e487b7100000000000000000000000000000000000000000000000000000000600052604160045260246000fd5b6000601f19601f8301169050919050565b7f68747470733a2f2f6e6674707265766965772e30786465762e636f6465732f3f60008201527f636f64653d000000000000000000000000000000000000000000000000000000602082015250565b7f4552433732313a207472616e7366657220746f206e6f6e20455243373231526560008201527f63656976657220696d706c656d656e7465720000000000000000000000000000602082015250565b7f4552433732313a207472616e736665722066726f6d20696e636f72726563742060008201527f6f776e6572000000000000000000000000000000000000000000000000000000602082015250565b7f4552433732313a20746f6b656e20616c7265616479206d696e74656400000000600082015250565b7f54484952445f574f524400000000000000000000000000000000000000000000600082015250565b7f4552433732313a207472616e7366657220746f20746865207a65726f2061646460008201527f7265737300000000000000000000000000000000000000000000000000000000602082015250565b7f4552433732313a20617070726f766520746f2063616c6c657200000000000000600082015250565b7f222c20226465736372697074696f6e223a20224120686967686c79206163636c60008201527f61696d656420636f6c6c656374696f6e206f6620737175617265732e222c202260208201527f696d616765223a2022646174613a696d6167652f7376672b786d6c3b6261736560408201527f36342c0000000000000000000000000000000000000000000000000000000000606082015250565b7f5345434f4e445f574f5244000000000000000000000000000000000000000000600082015250565b7f4552433732313a206f70657261746f7220717565727920666f72206e6f6e657860008201527f697374656e7420746f6b656e0000000000000000000000000000000000000000602082015250565b7f3c2f746578743e3c2f7376673e00000000000000000000000000000000000000600082015250565b7f4552433732313a20617070726f76652063616c6c6572206973206e6f74206f7760008201527f6e6572206e6f7220617070726f76656420666f7220616c6c0000000000000000602082015250565b7f4552433732313a2062616c616e636520717565727920666f7220746865207a6560008201527f726f206164647265737300000000000000000000000000000000000000000000602082015250565b7f4552433732313a206f776e657220717565727920666f72206e6f6e657869737460008201527f656e7420746f6b656e0000000000000000000000000000000000000000000000602082015250565b7f45524337323155524953746f726167653a2055524920736574206f66206e6f6e60008201527f6578697374656e7420746f6b656e000000000000000000000000000000000000602082015250565b7f227d000000000000000000000000000000000000000000000000000000000000600082015250565b7f4552433732313a206d696e7420746f20746865207a65726f2061646472657373600082015250565b7f45524337323155524953746f726167653a2055524920717565727920666f722060008201527f6e6f6e6578697374656e7420746f6b656e000000000000000000000000000000602082015250565b7f4552433732313a20617070726f76656420717565727920666f72206e6f6e657860008201527f697374656e7420746f6b656e0000000000000000000000000000000000000000602082015250565b7f4552433732314d657461646174613a2055524920717565727920666f72206e6f60008201527f6e6578697374656e7420746f6b656e0000000000000000000000000000000000602082015250565b7f7b226e616d65223a202200000000000000000000000000000000000000000000600082015250565b7f4552433732313a20617070726f76616c20746f2063757272656e74206f776e6560008201527f7200000000000000000000000000000000000000000000000000000000000000602082015250565b7f46495253545f574f524400000000000000000000000000000000000000000000600082015250565b7f646174613a6170706c69636174696f6e2f6a736f6e3b6261736536342c000000600082015250565b7f4552433732313a207472616e736665722063616c6c6572206973206e6f74206f60008201527f776e6572206e6f7220617070726f766564000000000000000000000000000000602082015250565b7f4d6178204e465420436f756e7420726561636865642100000000000000000000600082015250565b613b6b81613252565b8114613b7657600080fd5b50565b613b8281613264565b8114613b8d57600080fd5b50565b613b9981613270565b8114613ba457600080fd5b50565b613bb0816132bc565b8114613bbb57600080fd5b5056fe416e204e465420772f20494420257320686173206265656e206d696e74656420746f2025734142434445464748494a4b4c4d4e4f505152535455565758595a6162636465666768696a6b6c6d6e6f707172737475767778797a303132333435363738392b2fa26469706673582212206690d70e070929445542a9dc69a33b80bb677506601ab349258355ae95f2095164736f6c634300080100333c73766720786d6c6e733d27687474703a2f2f7777772e77332e6f72672f323030302f73766727207072657365727665417370656374526174696f3d27784d696e594d696e206d656574272076696577426f783d273020302033353020333530273e3c7374796c653e2e62617365207b2066696c6c3a2077686974653b20666f6e742d66616d696c793a2073657269663b20666f6e742d73697a653a20323470783b207d3c2f7374796c653e3c726563742077696474683d273130302527206865696768743d2731303025272066696c6c3d27626c61636b27202f3e3c7465787420783d273530252720793d273530252720636c6173733d27626173652720646f6d696e616e742d626173656c696e653d276d6964646c652720746578742d616e63686f723d276d6964646c65273e",
  "linkReferences": {},
  "deployedLinkReferences": {}
}